{
  "contractName": "TrustAccessData",
  "abi": [
    {
      "inputs": [],
      "stateMutability": "nonpayable",
      "type": "constructor"
    },
    {
      "anonymous": false,
      "inputs": [
        {
          "indexed": false,
          "internalType": "address",
          "name": "_apartmentAddress",
          "type": "address"
        },
        {
          "indexed": false,
          "internalType": "string",
          "name": "_name",
          "type": "string"
        }
      ],
      "name": "ApartmentRegistered",
      "type": "event"
    },
    {
      "anonymous": false,
      "inputs": [
        {
          "indexed": false,
          "internalType": "address",
          "name": "_ownerAddress",
          "type": "address"
        },
        {
          "indexed": false,
          "internalType": "string",
          "name": "_name",
          "type": "string"
        }
      ],
      "name": "ResidentRegistered",
      "type": "event"
    },
    {
      "inputs": [
        {
          "internalType": "address",
          "name": "",
          "type": "address"
        }
      ],
      "name": "apartments",
      "outputs": [
        {
          "internalType": "uint256",
          "name": "id",
          "type": "uint256"
        },
        {
          "internalType": "enum TrustAccessData.ApartmentStatus",
          "name": "status",
          "type": "uint8"
        },
        {
          "internalType": "address",
          "name": "apartment",
          "type": "address"
        },
        {
          "internalType": "string",
          "name": "name",
          "type": "string"
        }
      ],
      "stateMutability": "view",
      "type": "function",
      "constant": true
    },
    {
      "inputs": [
        {
          "internalType": "address",
          "name": "",
          "type": "address"
        },
        {
          "internalType": "uint256",
          "name": "",
          "type": "uint256"
        }
      ],
      "name": "residentApartments",
      "outputs": [
        {
          "internalType": "uint256",
          "name": "id",
          "type": "uint256"
        },
        {
          "internalType": "enum TrustAccessData.ApartmentStatus",
          "name": "status",
          "type": "uint8"
        },
        {
          "internalType": "address",
          "name": "apartment",
          "type": "address"
        },
        {
          "internalType": "string",
          "name": "name",
          "type": "string"
        }
      ],
      "stateMutability": "view",
      "type": "function",
      "constant": true
    },
    {
      "inputs": [
        {
          "internalType": "address",
          "name": "",
          "type": "address"
        }
      ],
      "name": "residents",
      "outputs": [
        {
          "internalType": "uint256",
          "name": "id",
          "type": "uint256"
        },
        {
          "internalType": "string",
          "name": "name",
          "type": "string"
        },
        {
          "internalType": "bool",
          "name": "isActive",
          "type": "bool"
        }
      ],
      "stateMutability": "view",
      "type": "function",
      "constant": true
    },
    {
      "inputs": [],
      "name": "numberOfResidents",
      "outputs": [
        {
          "internalType": "uint256",
          "name": "",
          "type": "uint256"
        }
      ],
      "stateMutability": "view",
      "type": "function",
      "constant": true
    },
    {
      "inputs": [],
      "name": "numberOfApartments",
      "outputs": [
        {
          "internalType": "uint256",
          "name": "",
          "type": "uint256"
        }
      ],
      "stateMutability": "view",
      "type": "function",
      "constant": true
    },
    {
      "inputs": [
        {
          "internalType": "address",
          "name": "_apartmentAddress",
          "type": "address"
        },
        {
          "internalType": "string",
          "name": "_name",
          "type": "string"
        }
      ],
      "name": "registerApartment",
      "outputs": [
        {
          "internalType": "bool",
          "name": "success",
          "type": "bool"
        }
      ],
      "stateMutability": "nonpayable",
      "type": "function"
    },
    {
      "inputs": [
        {
          "internalType": "address",
          "name": "_ownerAddress",
          "type": "address"
        },
        {
          "internalType": "string",
          "name": "_name",
          "type": "string"
        }
      ],
      "name": "registerResident",
      "outputs": [
        {
          "internalType": "bool",
          "name": "success",
          "type": "bool"
        }
      ],
      "stateMutability": "nonpayable",
      "type": "function"
    },
    {
      "inputs": [
        {
          "internalType": "address",
          "name": "_resident",
          "type": "address"
        },
        {
          "internalType": "address",
          "name": "_apartment",
          "type": "address"
        }
      ],
      "name": "assignResidentToApartment",
      "outputs": [
        {
          "internalType": "bool",
          "name": "success",
          "type": "bool"
        }
      ],
      "stateMutability": "nonpayable",
      "type": "function"
    }
  ],
  "bytecode": "0x60806040526001600060146101000a81548160ff02191690831515021790555034801561002b57600080fd5b50336000806101000a81548173ffffffffffffffffffffffffffffffffffffffff021916908373ffffffffffffffffffffffffffffffffffffffff1602179055506114fa8061007b6000396000f3fe608060405234801561001057600080fd5b50600436106100885760003560e01c8063aa54f1f51161005b578063aa54f1f51461013e578063ae43541f14610171578063af684dd4146101a1578063e4d65d54146101bf57610088565b806307d53ece1461008d578063081c4fc0146100bd57806337a36986146100ed57806381a40b3c1461010b575b600080fd5b6100a760048036038101906100a29190610b90565b6101f1565b6040516100b49190610beb565b60405180910390f35b6100d760048036038101906100d29190610d4c565b61054b565b6040516100e49190610beb565b60405180910390f35b6100f56106a8565b6040516101029190610dc1565b60405180910390f35b61012560048036038101906101209190610ddc565b6106b2565b6040516101359493929190610f17565b60405180910390f35b61015860048036038101906101539190610f8f565b610797565b6040516101689493929190610f17565b60405180910390f35b61018b60048036038101906101869190610d4c565b610899565b6040516101989190610beb565b60405180910390f35b6101a9610a55565b6040516101b69190610dc1565b60405180910390f35b6101d960048036038101906101d49190610ddc565b610a5f565b6040516101e893929190610fcf565b60405180910390f35b60008073ffffffffffffffffffffffffffffffffffffffff16600360008473ffffffffffffffffffffffffffffffffffffffff1673ffffffffffffffffffffffffffffffffffffffff16815260200190815260200160002060010160019054906101000a900473ffffffffffffffffffffffffffffffffffffffff1673ffffffffffffffffffffffffffffffffffffffff16036102c3576040517f08c379a00000000000000000000000000000000000000000000000000000000081526004016102ba9061107f565b60405180910390fd5b6000600360008473ffffffffffffffffffffffffffffffffffffffff1673ffffffffffffffffffffffffffffffffffffffff168152602001908152602001600020604051806080016040529081600082015481526020016001820160009054906101000a900460ff16600281111561033e5761033d610e09565b5b60028111156103505761034f610e09565b5b81526020016001820160019054906101000a900473ffffffffffffffffffffffffffffffffffffffff1673ffffffffffffffffffffffffffffffffffffffff1673ffffffffffffffffffffffffffffffffffffffff1681526020016002820180546103ba906110ce565b80601f01602080910402602001604051908101604052809291908181526020018280546103e6906110ce565b80156104335780601f1061040857610100808354040283529160200191610433565b820191906000526020600020905b81548152906001019060200180831161041657829003601f168201915b5050505050815250509050600560008573ffffffffffffffffffffffffffffffffffffffff1673ffffffffffffffffffffffffffffffffffffffff1681526020019081526020016000208190806001815401808255809150506001900390600052602060002090600302016000909190919091506000820151816000015560208201518160010160006101000a81548160ff021916908360028111156104dc576104db610e09565b5b021790555060408201518160010160016101000a81548173ffffffffffffffffffffffffffffffffffffffff021916908373ffffffffffffffffffffffffffffffffffffffff160217905550606082015181600201908161053d91906112ab565b505050600191505092915050565b6000600154600360008573ffffffffffffffffffffffffffffffffffffffff1673ffffffffffffffffffffffffffffffffffffffff1681526020019081526020016000206000018190555081600360008573ffffffffffffffffffffffffffffffffffffffff1673ffffffffffffffffffffffffffffffffffffffff16815260200190815260200160002060020190816105e591906112ab565b506001600360008573ffffffffffffffffffffffffffffffffffffffff1673ffffffffffffffffffffffffffffffffffffffff16815260200190815260200160002060010160006101000a81548160ff0219169083600281111561064c5761064b610e09565b5b02179055506001805461065f91906113ac565b6001819055507ff35ecd6b0b6dbd8d4971e67ceed39369f6f3e97780a4eeb737ec7df5cda498028383604051610696929190611402565b60405180910390a16001905092915050565b6000600254905090565b60036020528060005260406000206000915090508060000154908060010160009054906101000a900460ff16908060010160019054906101000a900473ffffffffffffffffffffffffffffffffffffffff1690806002018054610714906110ce565b80601f0160208091040260200160405190810160405280929190818152602001828054610740906110ce565b801561078d5780601f106107625761010080835404028352916020019161078d565b820191906000526020600020905b81548152906001019060200180831161077057829003601f168201915b5050505050905084565b600560205281600052604060002081815481106107b357600080fd5b9060005260206000209060030201600091509150508060000154908060010160009054906101000a900460ff16908060010160019054906101000a900473ffffffffffffffffffffffffffffffffffffffff1690806002018054610816906110ce565b80601f0160208091040260200160405190810160405280929190818152602001828054610842906110ce565b801561088f5780601f106108645761010080835404028352916020019161088f565b820191906000526020600020905b81548152906001019060200180831161087257829003601f168201915b5050505050905084565b60008073ffffffffffffffffffffffffffffffffffffffff168373ffffffffffffffffffffffffffffffffffffffff1614610909576040517f08c379a0000000000000000000000000000000000000000000000000000000008152600401610900906114a4565b60405180910390fd5b600254600460008573ffffffffffffffffffffffffffffffffffffffff1673ffffffffffffffffffffffffffffffffffffffff1681526020019081526020016000206000018190555081600460008573ffffffffffffffffffffffffffffffffffffffff1673ffffffffffffffffffffffffffffffffffffffff16815260200190815260200160002060010190816109a191906112ab565b506001600460008573ffffffffffffffffffffffffffffffffffffffff1673ffffffffffffffffffffffffffffffffffffffff16815260200190815260200160002060020160006101000a81548160ff0219169083151502179055506001600254610a0c91906113ac565b6002819055507fa02b1685084f52706f1c0a8a689a2f48913224e2698d3cab5f535e4bde0199548383604051610a43929190611402565b60405180910390a16001905092915050565b6000600154905090565b6004602052806000526040600020600091509050806000015490806001018054610a88906110ce565b80601f0160208091040260200160405190810160405280929190818152602001828054610ab4906110ce565b8015610b015780601f10610ad657610100808354040283529160200191610b01565b820191906000526020600020905b815481529060010190602001808311610ae457829003601f168201915b5050505050908060020160009054906101000a900460ff16905083565b6000604051905090565b600080fd5b600080fd5b600073ffffffffffffffffffffffffffffffffffffffff82169050919050565b6000610b5d82610b32565b9050919050565b610b6d81610b52565b8114610b7857600080fd5b50565b600081359050610b8a81610b64565b92915050565b60008060408385031215610ba757610ba6610b28565b5b6000610bb585828601610b7b565b9250506020610bc685828601610b7b565b9150509250929050565b60008115159050919050565b610be581610bd0565b82525050565b6000602082019050610c006000830184610bdc565b92915050565b600080fd5b600080fd5b6000601f19601f8301169050919050565b7f4e487b7100000000000000000000000000000000000000000000000000000000600052604160045260246000fd5b610c5982610c10565b810181811067ffffffffffffffff82111715610c7857610c77610c21565b5b80604052505050565b6000610c8b610b1e565b9050610c978282610c50565b919050565b600067ffffffffffffffff821115610cb757610cb6610c21565b5b610cc082610c10565b9050602081019050919050565b82818337600083830152505050565b6000610cef610cea84610c9c565b610c81565b905082815260208101848484011115610d0b57610d0a610c0b565b5b610d16848285610ccd565b509392505050565b600082601f830112610d3357610d32610c06565b5b8135610d43848260208601610cdc565b91505092915050565b60008060408385031215610d6357610d62610b28565b5b6000610d7185828601610b7b565b925050602083013567ffffffffffffffff811115610d9257610d91610b2d565b5b610d9e85828601610d1e565b9150509250929050565b6000819050919050565b610dbb81610da8565b82525050565b6000602082019050610dd66000830184610db2565b92915050565b600060208284031215610df257610df1610b28565b5b6000610e0084828501610b7b565b91505092915050565b7f4e487b7100000000000000000000000000000000000000000000000000000000600052602160045260246000fd5b60038110610e4957610e48610e09565b5b50565b6000819050610e5a82610e38565b919050565b6000610e6a82610e4c565b9050919050565b610e7a81610e5f565b82525050565b610e8981610b52565b82525050565b600081519050919050565b600082825260208201905092915050565b60005b83811015610ec9578082015181840152602081019050610eae565b83811115610ed8576000848401525b50505050565b6000610ee982610e8f565b610ef38185610e9a565b9350610f03818560208601610eab565b610f0c81610c10565b840191505092915050565b6000608082019050610f2c6000830187610db2565b610f396020830186610e71565b610f466040830185610e80565b8181036060830152610f588184610ede565b905095945050505050565b610f6c81610da8565b8114610f7757600080fd5b50565b600081359050610f8981610f63565b92915050565b60008060408385031215610fa657610fa5610b28565b5b6000610fb485828601610b7b565b9250506020610fc585828601610f7a565b9150509250929050565b6000606082019050610fe46000830186610db2565b8181036020830152610ff68185610ede565b90506110056040830184610bdc565b949350505050565b7f41706172746d656e742077697468206164647265737320646f6573206e6f742060008201527f6578697374000000000000000000000000000000000000000000000000000000602082015250565b6000611069602583610e9a565b91506110748261100d565b604082019050919050565b600060208201905081810360008301526110988161105c565b9050919050565b7f4e487b7100000000000000000000000000000000000000000000000000000000600052602260045260246000fd5b600060028204905060018216806110e657607f821691505b6020821081036110f9576110f861109f565b5b50919050565b60008190508160005260206000209050919050565b60006020601f8301049050919050565b600082821b905092915050565b6000600883026111617fffffffffffffffffffffffffffffffffffffffffffffffffffffffffffffffff82611124565b61116b8683611124565b95508019841693508086168417925050509392505050565b6000819050919050565b60006111a86111a361119e84610da8565b611183565b610da8565b9050919050565b6000819050919050565b6111c28361118d565b6111d66111ce826111af565b848454611131565b825550505050565b600090565b6111eb6111de565b6111f68184846111b9565b505050565b5b8181101561121a5761120f6000826111e3565b6001810190506111fc565b5050565b601f82111561125f57611230816110ff565b61123984611114565b81016020851015611248578190505b61125c61125485611114565b8301826111fb565b50505b505050565b600082821c905092915050565b600061128260001984600802611264565b1980831691505092915050565b600061129b8383611271565b9150826002028217905092915050565b6112b482610e8f565b67ffffffffffffffff8111156112cd576112cc610c21565b5b6112d782546110ce565b6112e282828561121e565b600060209050601f8311600181146113155760008415611303578287015190505b61130d858261128f565b865550611375565b601f198416611323866110ff565b60005b8281101561134b57848901518255600182019150602085019450602081019050611326565b868310156113685784890151611364601f891682611271565b8355505b6001600288020188555050505b505050505050565b7f4e487b7100000000000000000000000000000000000000000000000000000000600052601160045260246000fd5b60006113b782610da8565b91506113c283610da8565b9250827fffffffffffffffffffffffffffffffffffffffffffffffffffffffffffffffff038211156113f7576113f661137d565b5b828201905092915050565b60006040820190506114176000830185610e80565b81810360208301526114298184610ede565b90509392505050565b7f5265736964656e742077697468206164647265737320616c726561647920726560008201527f6769737465726564000000000000000000000000000000000000000000000000602082015250565b600061148e602883610e9a565b915061149982611432565b604082019050919050565b600060208201905081810360008301526114bd81611481565b905091905056fea2646970667358221220b1448f067b335411b2e60b5e1b360c7ed10be732465d255d8185dd219d55699664736f6c634300080f0033",
  "immutableReferences": {},
  "source": "pragma solidity ^0.8.13;\n\ncontract TrustAccessData {\n\n    address private contactOwner;\n    bool private operational = true;\n\n    uint apartmentCount; \n    uint residentCount; \n\n    constructor() {\n        contactOwner = msg.sender;\n    }\n\n    mapping(address => Apartment) public apartments;\n    mapping(address => Resident) public residents;\n    mapping(address => Apartment[]) public residentApartments;\n\n\n    event ApartmentRegistered(address _apartmentAddress, string _name );\n    event ResidentRegistered( address _ownerAddress, string _name );\n     \n    function numberOfResidents()\n        external\n        view\n        returns (uint)\n    {\n        return residentCount;\n    }\n\n    function numberOfApartments()\n        external\n        view\n        returns (uint)\n    {\n        return apartmentCount;\n    }\n\n    function registerApartment( address _apartmentAddress, string memory _name ) \n        public \n        returns(bool success)\n    {\n\n        apartments[_apartmentAddress].id = apartmentCount;\n        apartments[_apartmentAddress].name = _name;\n        apartments[_apartmentAddress].status = ApartmentStatus.Active;\n\n        apartmentCount = apartmentCount + 1;\n\n        emit ApartmentRegistered(_apartmentAddress, _name);\n\n        return true;\n    }\n\n    function registerResident( address _ownerAddress, string memory _name ) \n        public \n        returns(bool success)\n    {\n        require(_ownerAddress == address(0), \"Resident with address already registered\");\n\n        residents[_ownerAddress].id = residentCount;\n        residents[_ownerAddress].name = _name;\n        residents[_ownerAddress].isActive = true;\n\n        residentCount = residentCount + 1;\n\n        emit ResidentRegistered(_ownerAddress, _name);\n        \n        return true;\n    }\n\n    function assignResidentToApartment ( address _resident, address _apartment )\n        public\n        returns(bool success)\n    {\n        require( apartments[_apartment].apartment != address(0), \"Apartment with address does not exist\");\n        \n        Apartment memory apartment = apartments[_apartment];\n\n        residentApartments[_resident].push(apartment);\n        return true;\n    }\n\n    enum ApartmentStatus { \n        Inactive,\n        Active,\n        Suspended\n    }\n\n    enum ApartmentResidentsStatus {\n        Inactive,\n        Active\n    }\n\n    struct Apartment {\n        uint id;\n        ApartmentStatus status;\n        address apartment;\n        string name; \n    }\n\n    struct Resident {\n        uint id;\n        string name;\n        bool isActive;\n    }\n\n    struct ApartmentResidents {\n        address apartmentAddress;\n        address residentAddress;\n        ApartmentResidentsStatus status; \n    }\n\n    struct Appointments {\n        address resident;\n        address visitor;\n    }\n}",
  "sourcePath": "/Users/gbenga/Desktop/Projects/blockchain/TrustAccess/contracts/TrustAccessData.sol",
  "compiler": {
    "name": "solc",
    "version": "0.8.15+commit.e14f2714.Emscripten.clang"
  },
  "schemaVersion": "3.4.8",
  "updatedAt": "2022-08-02T23:44:23.474Z",
  "networkType": "ethereum",
  "devdoc": {
    "kind": "dev",
    "methods": {},
    "version": 1
  },
  "userdoc": {
    "kind": "user",
    "methods": {},
    "version": 1
  }
}