{
  "contractName": "TrustAccessData",
  "abi": [
    {
      "inputs": [],
      "stateMutability": "nonpayable",
      "type": "constructor"
    },
    {
      "anonymous": false,
      "inputs": [
        {
          "indexed": false,
          "internalType": "address",
          "name": "_apartmentAddress",
          "type": "address"
        },
        {
          "indexed": false,
          "internalType": "string",
          "name": "_name",
          "type": "string"
        }
      ],
      "name": "ApartmentRegistered",
      "type": "event"
    },
    {
      "anonymous": false,
      "inputs": [
        {
          "indexed": false,
          "internalType": "bytes32",
          "name": "appointmentId",
          "type": "bytes32"
        },
        {
          "indexed": false,
          "internalType": "address",
          "name": "_residentAddress",
          "type": "address"
        },
        {
          "indexed": false,
          "internalType": "address",
          "name": "_apartmentAddress",
          "type": "address"
        },
        {
          "indexed": false,
          "internalType": "address",
          "name": "_visitorAddress",
          "type": "address"
        },
        {
          "indexed": false,
          "internalType": "string",
          "name": "_time",
          "type": "string"
        }
      ],
      "name": "AppointmentMade",
      "type": "event"
    },
    {
      "anonymous": false,
      "inputs": [
        {
          "indexed": false,
          "internalType": "address",
          "name": "_residentAddress",
          "type": "address"
        },
        {
          "indexed": false,
          "internalType": "address",
          "name": "_apartmentAddress",
          "type": "address"
        }
      ],
      "name": "ResidentAssignedToApartment",
      "type": "event"
    },
    {
      "anonymous": false,
      "inputs": [
        {
          "indexed": false,
          "internalType": "address",
          "name": "_residentAddress",
          "type": "address"
        },
        {
          "indexed": false,
          "internalType": "string",
          "name": "_name",
          "type": "string"
        }
      ],
      "name": "ResidentRegistered",
      "type": "event"
    },
    {
      "inputs": [],
      "name": "apartmentCount",
      "outputs": [
        {
          "internalType": "uint256",
          "name": "",
          "type": "uint256"
        }
      ],
      "stateMutability": "view",
      "type": "function"
    },
    {
      "inputs": [
        {
          "internalType": "address",
          "name": "",
          "type": "address"
        }
      ],
      "name": "apartments",
      "outputs": [
        {
          "internalType": "uint256",
          "name": "id",
          "type": "uint256"
        },
        {
          "internalType": "enum TrustAccessData.ApartmentStatus",
          "name": "status",
          "type": "uint8"
        },
        {
          "internalType": "address",
          "name": "apartment",
          "type": "address"
        },
        {
          "internalType": "string",
          "name": "name",
          "type": "string"
        },
        {
          "internalType": "bool",
          "name": "isValue",
          "type": "bool"
        }
      ],
      "stateMutability": "view",
      "type": "function"
    },
    {
      "inputs": [],
      "name": "appointmentCount",
      "outputs": [
        {
          "internalType": "uint256",
          "name": "",
          "type": "uint256"
        }
      ],
      "stateMutability": "view",
      "type": "function"
    },
    {
      "inputs": [
        {
          "internalType": "bytes32",
          "name": "",
          "type": "bytes32"
        }
      ],
      "name": "appointments",
      "outputs": [
        {
          "internalType": "bytes32",
          "name": "id",
          "type": "bytes32"
        },
        {
          "internalType": "address",
          "name": "residentAddress",
          "type": "address"
        },
        {
          "internalType": "address",
          "name": "apartmentAddress",
          "type": "address"
        },
        {
          "internalType": "address",
          "name": "visitorAddress",
          "type": "address"
        },
        {
          "internalType": "enum TrustAccessData.AppointmentStatus",
          "name": "status",
          "type": "uint8"
        },
        {
          "internalType": "string",
          "name": "time",
          "type": "string"
        },
        {
          "internalType": "bool",
          "name": "isValue",
          "type": "bool"
        }
      ],
      "stateMutability": "view",
      "type": "function"
    },
    {
      "inputs": [],
      "name": "residentCount",
      "outputs": [
        {
          "internalType": "uint256",
          "name": "",
          "type": "uint256"
        }
      ],
      "stateMutability": "view",
      "type": "function"
    },
    {
      "inputs": [
        {
          "internalType": "address",
          "name": "",
          "type": "address"
        },
        {
          "internalType": "uint256",
          "name": "",
          "type": "uint256"
        }
      ],
      "name": "residentToApartmentsMap",
      "outputs": [
        {
          "internalType": "address",
          "name": "",
          "type": "address"
        }
      ],
      "stateMutability": "view",
      "type": "function"
    },
    {
      "inputs": [
        {
          "internalType": "address",
          "name": "",
          "type": "address"
        }
      ],
      "name": "residents",
      "outputs": [
        {
          "internalType": "uint256",
          "name": "id",
          "type": "uint256"
        },
        {
          "internalType": "string",
          "name": "name",
          "type": "string"
        },
        {
          "internalType": "bool",
          "name": "isActive",
          "type": "bool"
        },
        {
          "internalType": "bool",
          "name": "isValue",
          "type": "bool"
        }
      ],
      "stateMutability": "view",
      "type": "function"
    },
    {
      "inputs": [],
      "name": "numberOfResidents",
      "outputs": [
        {
          "internalType": "uint256",
          "name": "",
          "type": "uint256"
        }
      ],
      "stateMutability": "view",
      "type": "function"
    },
    {
      "inputs": [],
      "name": "numberOfApartments",
      "outputs": [
        {
          "internalType": "uint256",
          "name": "",
          "type": "uint256"
        }
      ],
      "stateMutability": "view",
      "type": "function"
    },
    {
      "inputs": [
        {
          "internalType": "address",
          "name": "_apartmentAddress",
          "type": "address"
        }
      ],
      "name": "fetchApartment",
      "outputs": [
        {
          "internalType": "uint256",
          "name": "id",
          "type": "uint256"
        },
        {
          "internalType": "enum TrustAccessData.ApartmentStatus",
          "name": "status",
          "type": "uint8"
        },
        {
          "internalType": "string",
          "name": "name",
          "type": "string"
        }
      ],
      "stateMutability": "view",
      "type": "function"
    },
    {
      "inputs": [
        {
          "internalType": "address",
          "name": "_apartmentAddress",
          "type": "address"
        },
        {
          "internalType": "string",
          "name": "_name",
          "type": "string"
        }
      ],
      "name": "registerApartment",
      "outputs": [
        {
          "components": [
            {
              "internalType": "uint256",
              "name": "id",
              "type": "uint256"
            },
            {
              "internalType": "enum TrustAccessData.ApartmentStatus",
              "name": "status",
              "type": "uint8"
            },
            {
              "internalType": "address",
              "name": "apartment",
              "type": "address"
            },
            {
              "internalType": "string",
              "name": "name",
              "type": "string"
            },
            {
              "internalType": "bool",
              "name": "isValue",
              "type": "bool"
            }
          ],
          "internalType": "struct TrustAccessData.Apartment",
          "name": "apartment",
          "type": "tuple"
        }
      ],
      "stateMutability": "nonpayable",
      "type": "function"
    },
    {
      "inputs": [
        {
          "internalType": "address",
          "name": "_residentAddress",
          "type": "address"
        }
      ],
      "name": "fetchResident",
      "outputs": [
        {
          "internalType": "uint256",
          "name": "id",
          "type": "uint256"
        },
        {
          "internalType": "string",
          "name": "name",
          "type": "string"
        },
        {
          "internalType": "bool",
          "name": "isActive",
          "type": "bool"
        }
      ],
      "stateMutability": "view",
      "type": "function"
    },
    {
      "inputs": [
        {
          "internalType": "address",
          "name": "_residentAddress",
          "type": "address"
        },
        {
          "internalType": "string",
          "name": "_name",
          "type": "string"
        }
      ],
      "name": "registerResident",
      "outputs": [
        {
          "components": [
            {
              "internalType": "uint256",
              "name": "id",
              "type": "uint256"
            },
            {
              "internalType": "string",
              "name": "name",
              "type": "string"
            },
            {
              "internalType": "bool",
              "name": "isActive",
              "type": "bool"
            },
            {
              "internalType": "bool",
              "name": "isValue",
              "type": "bool"
            }
          ],
          "internalType": "struct TrustAccessData.Resident",
          "name": "resident",
          "type": "tuple"
        }
      ],
      "stateMutability": "nonpayable",
      "type": "function"
    },
    {
      "inputs": [
        {
          "internalType": "address",
          "name": "_residentAddress",
          "type": "address"
        }
      ],
      "name": "fetchResidentApartments",
      "outputs": [
        {
          "internalType": "address[]",
          "name": "residentApartments",
          "type": "address[]"
        }
      ],
      "stateMutability": "view",
      "type": "function"
    },
    {
      "inputs": [
        {
          "internalType": "address",
          "name": "_residentAddress",
          "type": "address"
        },
        {
          "internalType": "address",
          "name": "_apartmentAddress",
          "type": "address"
        }
      ],
      "name": "assignResidentToApartment",
      "outputs": [
        {
          "internalType": "address[]",
          "name": "residentApartments",
          "type": "address[]"
        }
      ],
      "stateMutability": "nonpayable",
      "type": "function"
    },
    {
      "inputs": [
        {
          "internalType": "address",
          "name": "_apartmentAddress",
          "type": "address"
        },
        {
          "internalType": "address",
          "name": "_visitorAddress",
          "type": "address"
        },
        {
          "internalType": "string",
          "name": "_time",
          "type": "string"
        }
      ],
      "name": "makeAppointment",
      "outputs": [
        {
          "internalType": "bytes32",
          "name": "_appointmentId",
          "type": "bytes32"
        }
      ],
      "stateMutability": "nonpayable",
      "type": "function"
    },
    {
      "inputs": [
        {
          "internalType": "bytes32",
          "name": "_appointmentId",
          "type": "bytes32"
        },
        {
          "internalType": "address",
          "name": "_visitorAddress",
          "type": "address"
        }
      ],
      "name": "verifyAppointment",
      "outputs": [
        {
          "internalType": "bool",
          "name": "valid",
          "type": "bool"
        }
      ],
      "stateMutability": "view",
      "type": "function"
    }
  ],
  "bytecode": "0x60806040526001600060146101000a81548160ff02191690831515021790555034801561002b57600080fd5b50336000806101000a81548173ffffffffffffffffffffffffffffffffffffffff021916908373ffffffffffffffffffffffffffffffffffffffff160217905550612fb18061007b6000396000f3fe608060405234801561001057600080fd5b506004361061010b5760003560e01c806381a40b3c116100a2578063ae43541f11610071578063ae43541f14610326578063af684dd414610356578063e4d65d5414610374578063eb66d522146103a7578063eebc3fb2146103d95761010b565b806381a40b3c1461026e5780638214c08d146102a257806396e095d0146102c0578063ad36769b146102f05761010b565b80631955fc93116100de5780631955fc93146101d0578063359a072e146101ee57806337a369861461021e5780634403a7d81461023c5761010b565b806307d53ece14610110578063081c4fc0146101405780630ba55d381461017057806317ea87d9146101a0575b600080fd5b61012a60048036038101906101259190611dbe565b6103f7565b6040516101379190611ebc565b60405180910390f35b61015a60048036038101906101559190612024565b6106c0565b6040516101679190612229565b60405180910390f35b61018a6004803603810190610185919061224b565b610aa0565b6040516101979190611ebc565b60405180910390f35b6101ba60048036038101906101b59190612278565b610bfe565b6040516101c79190612300565b60405180910390f35b6101d86110e1565b6040516101e5919061232a565b60405180910390f35b61020860048036038101906102039190612371565b6110e7565b60405161021591906123c0565b60405180910390f35b6102266111ed565b604051610233919061232a565b60405180910390f35b6102566004803603810190610251919061224b565b6111f7565b60405161026593929190612425565b60405180910390f35b6102886004803603810190610283919061224b565b6113f9565b604051610299959493929190612481565b60405180910390f35b6102aa6114f1565b6040516102b7919061232a565b60405180910390f35b6102da60048036038101906102d59190612507565b6114f7565b6040516102e79190612547565b60405180910390f35b61030a60048036038101906103059190612562565b611545565b60405161031d97969594939291906125d7565b60405180910390f35b610340600480360381019061033b9190612024565b611689565b60405161034d91906126b0565b60405180910390f35b61035e6119e4565b60405161036b919061232a565b60405180910390f35b61038e6004803603810190610389919061224b565b6119ee565b60405161039e94939291906126d2565b60405180910390f35b6103c160048036038101906103bc919061224b565b611ac0565b6040516103d09392919061271e565b60405180910390f35b6103e1611cc1565b6040516103ee919061232a565b60405180910390f35b606082600560008273ffffffffffffffffffffffffffffffffffffffff1673ffffffffffffffffffffffffffffffffffffffff16815260200190815260200160002060020160019054906101000a900460ff16610489576040517f08c379a0000000000000000000000000000000000000000000000000000000008152600401610480906127ce565b60405180910390fd5b82600460008273ffffffffffffffffffffffffffffffffffffffff1673ffffffffffffffffffffffffffffffffffffffff16815260200190815260200160002060030160009054906101000a900460ff16610519576040517f08c379a000000000000000000000000000000000000000000000000000000000815260040161051090612860565b60405180910390fd5b600660008673ffffffffffffffffffffffffffffffffffffffff1673ffffffffffffffffffffffffffffffffffffffff168152602001908152602001600020849080600181540180825580915050600190039060005260206000200160009091909190916101000a81548173ffffffffffffffffffffffffffffffffffffffff021916908373ffffffffffffffffffffffffffffffffffffffff1602179055507f47ac08b058d39a04fd2ffb7f12c1995858ba65f4451f7c89aa8d6f0e7a7fb8fd85856040516105ea929190612880565b60405180910390a1600660008673ffffffffffffffffffffffffffffffffffffffff1673ffffffffffffffffffffffffffffffffffffffff1681526020019081526020016000208054806020026020016040519081016040528092919081815260200182805480156106b157602002820191906000526020600020905b8160009054906101000a900473ffffffffffffffffffffffffffffffffffffffff1673ffffffffffffffffffffffffffffffffffffffff1681526020019060010190808311610667575b50505050509250505092915050565b6106c8611cc7565b82600460008273ffffffffffffffffffffffffffffffffffffffff1673ffffffffffffffffffffffffffffffffffffffff16815260200190815260200160002060030160009054906101000a900460ff1615610759576040517f08c379a00000000000000000000000000000000000000000000000000000000081526004016107509061291b565b60405180910390fd5b600154600460008673ffffffffffffffffffffffffffffffffffffffff1673ffffffffffffffffffffffffffffffffffffffff1681526020019081526020016000206000018190555082600460008673ffffffffffffffffffffffffffffffffffffffff1673ffffffffffffffffffffffffffffffffffffffff16815260200190815260200160002060020190816107f19190612b47565b506001600460008673ffffffffffffffffffffffffffffffffffffffff1673ffffffffffffffffffffffffffffffffffffffff16815260200190815260200160002060010160006101000a81548160ff0219169083600281111561085857610857612099565b5b02179055506001600460008673ffffffffffffffffffffffffffffffffffffffff1673ffffffffffffffffffffffffffffffffffffffff16815260200190815260200160002060030160006101000a81548160ff021916908315150217905550600180546108c69190612c48565b6001819055507ff35ecd6b0b6dbd8d4971e67ceed39369f6f3e97780a4eeb737ec7df5cda4980284846040516108fd929190612c9e565b60405180910390a1600460008573ffffffffffffffffffffffffffffffffffffffff1673ffffffffffffffffffffffffffffffffffffffff1681526020019081526020016000206040518060a0016040529081600082015481526020016001820160009054906101000a900460ff16600281111561097e5761097d612099565b5b60028111156109905761098f612099565b5b81526020016001820160019054906101000a900473ffffffffffffffffffffffffffffffffffffffff1673ffffffffffffffffffffffffffffffffffffffff1673ffffffffffffffffffffffffffffffffffffffff1681526020016002820180546109fa9061296a565b80601f0160208091040260200160405190810160405280929190818152602001828054610a269061296a565b8015610a735780601f10610a4857610100808354040283529160200191610a73565b820191906000526020600020905b815481529060010190602001808311610a5657829003601f168201915b505050505081526020016003820160009054906101000a900460ff16151515158152505091505092915050565b606081600560008273ffffffffffffffffffffffffffffffffffffffff1673ffffffffffffffffffffffffffffffffffffffff16815260200190815260200160002060020160019054906101000a900460ff16610b32576040517f08c379a0000000000000000000000000000000000000000000000000000000008152600401610b29906127ce565b60405180910390fd5b600660008473ffffffffffffffffffffffffffffffffffffffff1673ffffffffffffffffffffffffffffffffffffffff168152602001908152602001600020805480602002602001604051908101604052809291908181526020018280548015610bf157602002820191906000526020600020905b8160009054906101000a900473ffffffffffffffffffffffffffffffffffffffff1673ffffffffffffffffffffffffffffffffffffffff1681526020019060010190808311610ba7575b5050505050915050919050565b600033600560008273ffffffffffffffffffffffffffffffffffffffff1673ffffffffffffffffffffffffffffffffffffffff16815260200190815260200160002060020160019054906101000a900460ff16610c90576040517f08c379a0000000000000000000000000000000000000000000000000000000008152600401610c87906127ce565b60405180910390fd5b84600460008273ffffffffffffffffffffffffffffffffffffffff1673ffffffffffffffffffffffffffffffffffffffff16815260200190815260200160002060030160009054906101000a900460ff16610d20576040517f08c379a0000000000000000000000000000000000000000000000000000000008152600401610d1790612860565b60405180910390fd5b33866000600660008473ffffffffffffffffffffffffffffffffffffffff1673ffffffffffffffffffffffffffffffffffffffff168152602001908152602001600020805480602002602001604051908101604052809291908181526020018280548015610de357602002820191906000526020600020905b8160009054906101000a900473ffffffffffffffffffffffffffffffffffffffff1673ffffffffffffffffffffffffffffffffffffffff1681526020019060010190808311610d99575b505050505090506000805b82518160ff161015610e5e578373ffffffffffffffffffffffffffffffffffffffff16838260ff1681518110610e2757610e26612cce565b5b602002602001015173ffffffffffffffffffffffffffffffffffffffff1603610e535760019150610e5e565b806001019050610dee565b5080610e9f576040517f08c379a0000000000000000000000000000000000000000000000000000000008152600401610e9690612d6f565b60405180910390fd5b6000338b8b8b604051602001610eb89493929190612d8f565b6040516020818303038152906040528051906020012090506000600760008381526020019081526020016000209050818160000181905550338160010160006101000a81548173ffffffffffffffffffffffffffffffffffffffff021916908373ffffffffffffffffffffffffffffffffffffffff1602179055508b8160020160006101000a81548173ffffffffffffffffffffffffffffffffffffffff021916908373ffffffffffffffffffffffffffffffffffffffff1602179055508a8160030160006101000a81548173ffffffffffffffffffffffffffffffffffffffff021916908373ffffffffffffffffffffffffffffffffffffffff16021790555060018160030160146101000a81548160ff02191690836003811115610fe157610fe0612099565b5b021790555089816004019081610ff79190612b47565b5060018160050160006101000a81548160ff0219169083151502179055506003600081548092919061102890612ddb565b91905055506007600083815260200190815260200160002060050160009054906101000a900460ff16611090576040517f08c379a000000000000000000000000000000000000000000000000000000000815260040161108790612e6f565b60405180910390fd5b7fada10010208bd5d5c1bfb0bc4dbc4696dc50402538d895c0d61c6a96646d655582338e8e8e6040516110c7959493929190612e8f565b60405180910390a181985050505050505050509392505050565b60015481565b600033600560008273ffffffffffffffffffffffffffffffffffffffff1673ffffffffffffffffffffffffffffffffffffffff16815260200190815260200160002060020160019054906101000a900460ff16611179576040517f08c379a0000000000000000000000000000000000000000000000000000000008152600401611170906127ce565b60405180910390fd5b60006007600086815260200190815260200160002090508373ffffffffffffffffffffffffffffffffffffffff168160030160009054906101000a900473ffffffffffffffffffffffffffffffffffffffff1673ffffffffffffffffffffffffffffffffffffffff16149250505092915050565b6000600254905090565b60006060600083600560008273ffffffffffffffffffffffffffffffffffffffff1673ffffffffffffffffffffffffffffffffffffffff16815260200190815260200160002060020160019054906101000a900460ff1661128d576040517f08c379a0000000000000000000000000000000000000000000000000000000008152600401611284906127ce565b60405180910390fd5b600560008673ffffffffffffffffffffffffffffffffffffffff1673ffffffffffffffffffffffffffffffffffffffff168152602001908152602001600020600001549350600560008673ffffffffffffffffffffffffffffffffffffffff1673ffffffffffffffffffffffffffffffffffffffff168152602001908152602001600020600101805461131f9061296a565b80601f016020809104026020016040519081016040528092919081815260200182805461134b9061296a565b80156113985780601f1061136d57610100808354040283529160200191611398565b820191906000526020600020905b81548152906001019060200180831161137b57829003601f168201915b50505050509250600560008673ffffffffffffffffffffffffffffffffffffffff1673ffffffffffffffffffffffffffffffffffffffff16815260200190815260200160002060020160009054906101000a900460ff169150509193909250565b60046020528060005260406000206000915090508060000154908060010160009054906101000a900460ff16908060010160019054906101000a900473ffffffffffffffffffffffffffffffffffffffff169080600201805461145b9061296a565b80601f01602080910402602001604051908101604052809291908181526020018280546114879061296a565b80156114d45780601f106114a9576101008083540402835291602001916114d4565b820191906000526020600020905b8154815290600101906020018083116114b757829003601f168201915b5050505050908060030160009054906101000a900460ff16905085565b60025481565b6006602052816000526040600020818154811061151357600080fd5b906000526020600020016000915091509054906101000a900473ffffffffffffffffffffffffffffffffffffffff1681565b60076020528060005260406000206000915090508060000154908060010160009054906101000a900473ffffffffffffffffffffffffffffffffffffffff16908060020160009054906101000a900473ffffffffffffffffffffffffffffffffffffffff16908060030160009054906101000a900473ffffffffffffffffffffffffffffffffffffffff16908060030160149054906101000a900460ff16908060040180546115f39061296a565b80601f016020809104026020016040519081016040528092919081815260200182805461161f9061296a565b801561166c5780601f106116415761010080835404028352916020019161166c565b820191906000526020600020905b81548152906001019060200180831161164f57829003601f168201915b5050505050908060050160009054906101000a900460ff16905087565b611691611d20565b82600560008273ffffffffffffffffffffffffffffffffffffffff1673ffffffffffffffffffffffffffffffffffffffff16815260200190815260200160002060020160019054906101000a900460ff1615611722576040517f08c379a000000000000000000000000000000000000000000000000000000000815260040161171990612f5b565b60405180910390fd5b600254600560008673ffffffffffffffffffffffffffffffffffffffff1673ffffffffffffffffffffffffffffffffffffffff1681526020019081526020016000206000018190555082600560008673ffffffffffffffffffffffffffffffffffffffff1673ffffffffffffffffffffffffffffffffffffffff16815260200190815260200160002060010190816117ba9190612b47565b506001600560008673ffffffffffffffffffffffffffffffffffffffff1673ffffffffffffffffffffffffffffffffffffffff16815260200190815260200160002060020160006101000a81548160ff0219169083151502179055506001600560008673ffffffffffffffffffffffffffffffffffffffff1673ffffffffffffffffffffffffffffffffffffffff16815260200190815260200160002060020160016101000a81548160ff02191690831515021790555060016002546118809190612c48565b6002819055507fa02b1685084f52706f1c0a8a689a2f48913224e2698d3cab5f535e4bde01995484846040516118b7929190612c9e565b60405180910390a1600560008573ffffffffffffffffffffffffffffffffffffffff1673ffffffffffffffffffffffffffffffffffffffff168152602001908152602001600020604051806080016040529081600082015481526020016001820180546119239061296a565b80601f016020809104026020016040519081016040528092919081815260200182805461194f9061296a565b801561199c5780601f106119715761010080835404028352916020019161199c565b820191906000526020600020905b81548152906001019060200180831161197f57829003601f168201915b505050505081526020016002820160009054906101000a900460ff161515151581526020016002820160019054906101000a900460ff16151515158152505091505092915050565b6000600154905090565b6005602052806000526040600020600091509050806000015490806001018054611a179061296a565b80601f0160208091040260200160405190810160405280929190818152602001828054611a439061296a565b8015611a905780601f10611a6557610100808354040283529160200191611a90565b820191906000526020600020905b815481529060010190602001808311611a7357829003601f168201915b5050505050908060020160009054906101000a900460ff16908060020160019054906101000a900460ff16905084565b600080606083600460008273ffffffffffffffffffffffffffffffffffffffff1673ffffffffffffffffffffffffffffffffffffffff16815260200190815260200160002060030160009054906101000a900460ff16611b55576040517f08c379a0000000000000000000000000000000000000000000000000000000008152600401611b4c90612860565b60405180910390fd5b600460008673ffffffffffffffffffffffffffffffffffffffff1673ffffffffffffffffffffffffffffffffffffffff168152602001908152602001600020600001549350600460008673ffffffffffffffffffffffffffffffffffffffff1673ffffffffffffffffffffffffffffffffffffffff16815260200190815260200160002060010160009054906101000a900460ff169250600460008673ffffffffffffffffffffffffffffffffffffffff1673ffffffffffffffffffffffffffffffffffffffff1681526020019081526020016000206002018054611c399061296a565b80601f0160208091040260200160405190810160405280929190818152602001828054611c659061296a565b8015611cb25780601f10611c8757610100808354040283529160200191611cb2565b820191906000526020600020905b815481529060010190602001808311611c9557829003601f168201915b50505050509150509193909250565b60035481565b6040518060a001604052806000815260200160006002811115611ced57611cec612099565b5b8152602001600073ffffffffffffffffffffffffffffffffffffffff168152602001606081526020016000151581525090565b604051806080016040528060008152602001606081526020016000151581526020016000151581525090565b6000604051905090565b600080fd5b600080fd5b600073ffffffffffffffffffffffffffffffffffffffff82169050919050565b6000611d8b82611d60565b9050919050565b611d9b81611d80565b8114611da657600080fd5b50565b600081359050611db881611d92565b92915050565b60008060408385031215611dd557611dd4611d56565b5b6000611de385828601611da9565b9250506020611df485828601611da9565b9150509250929050565b600081519050919050565b600082825260208201905092915050565b6000819050602082019050919050565b611e3381611d80565b82525050565b6000611e458383611e2a565b60208301905092915050565b6000602082019050919050565b6000611e6982611dfe565b611e738185611e09565b9350611e7e83611e1a565b8060005b83811015611eaf578151611e968882611e39565b9750611ea183611e51565b925050600181019050611e82565b5085935050505092915050565b60006020820190508181036000830152611ed68184611e5e565b905092915050565b600080fd5b600080fd5b6000601f19601f8301169050919050565b7f4e487b7100000000000000000000000000000000000000000000000000000000600052604160045260246000fd5b611f3182611ee8565b810181811067ffffffffffffffff82111715611f5057611f4f611ef9565b5b80604052505050565b6000611f63611d4c565b9050611f6f8282611f28565b919050565b600067ffffffffffffffff821115611f8f57611f8e611ef9565b5b611f9882611ee8565b9050602081019050919050565b82818337600083830152505050565b6000611fc7611fc284611f74565b611f59565b905082815260208101848484011115611fe357611fe2611ee3565b5b611fee848285611fa5565b509392505050565b600082601f83011261200b5761200a611ede565b5b813561201b848260208601611fb4565b91505092915050565b6000806040838503121561203b5761203a611d56565b5b600061204985828601611da9565b925050602083013567ffffffffffffffff81111561206a57612069611d5b565b5b61207685828601611ff6565b9150509250929050565b6000819050919050565b61209381612080565b82525050565b7f4e487b7100000000000000000000000000000000000000000000000000000000600052602160045260246000fd5b600381106120d9576120d8612099565b5b50565b60008190506120ea826120c8565b919050565b60006120fa826120dc565b9050919050565b61210a816120ef565b82525050565b600081519050919050565b600082825260208201905092915050565b60005b8381101561214a57808201518184015260208101905061212f565b83811115612159576000848401525b50505050565b600061216a82612110565b612174818561211b565b935061218481856020860161212c565b61218d81611ee8565b840191505092915050565b60008115159050919050565b6121ad81612198565b82525050565b600060a0830160008301516121cb600086018261208a565b5060208301516121de6020860182612101565b5060408301516121f16040860182611e2a565b5060608301518482036060860152612209828261215f565b915050608083015161221e60808601826121a4565b508091505092915050565b6000602082019050818103600083015261224381846121b3565b905092915050565b60006020828403121561226157612260611d56565b5b600061226f84828501611da9565b91505092915050565b60008060006060848603121561229157612290611d56565b5b600061229f86828701611da9565b93505060206122b086828701611da9565b925050604084013567ffffffffffffffff8111156122d1576122d0611d5b565b5b6122dd86828701611ff6565b9150509250925092565b6000819050919050565b6122fa816122e7565b82525050565b600060208201905061231560008301846122f1565b92915050565b61232481612080565b82525050565b600060208201905061233f600083018461231b565b92915050565b61234e816122e7565b811461235957600080fd5b50565b60008135905061236b81612345565b92915050565b6000806040838503121561238857612387611d56565b5b60006123968582860161235c565b92505060206123a785828601611da9565b9150509250929050565b6123ba81612198565b82525050565b60006020820190506123d560008301846123b1565b92915050565b600082825260208201905092915050565b60006123f782612110565b61240181856123db565b935061241181856020860161212c565b61241a81611ee8565b840191505092915050565b600060608201905061243a600083018661231b565b818103602083015261244c81856123ec565b905061245b60408301846123b1565b949350505050565b61246c816120ef565b82525050565b61247b81611d80565b82525050565b600060a082019050612496600083018861231b565b6124a36020830187612463565b6124b06040830186612472565b81810360608301526124c281856123ec565b90506124d160808301846123b1565b9695505050505050565b6124e481612080565b81146124ef57600080fd5b50565b600081359050612501816124db565b92915050565b6000806040838503121561251e5761251d611d56565b5b600061252c85828601611da9565b925050602061253d858286016124f2565b9150509250929050565b600060208201905061255c6000830184612472565b92915050565b60006020828403121561257857612577611d56565b5b60006125868482850161235c565b91505092915050565b600481106125a05761259f612099565b5b50565b60008190506125b18261258f565b919050565b60006125c1826125a3565b9050919050565b6125d1816125b6565b82525050565b600060e0820190506125ec600083018a6122f1565b6125f96020830189612472565b6126066040830188612472565b6126136060830187612472565b61262060808301866125c8565b81810360a083015261263281856123ec565b905061264160c08301846123b1565b98975050505050505050565b6000608083016000830151612665600086018261208a565b506020830151848203602086015261267d828261215f565b915050604083015161269260408601826121a4565b5060608301516126a560608601826121a4565b508091505092915050565b600060208201905081810360008301526126ca818461264d565b905092915050565b60006080820190506126e7600083018761231b565b81810360208301526126f981866123ec565b905061270860408301856123b1565b61271560608301846123b1565b95945050505050565b6000606082019050612733600083018661231b565b6127406020830185612463565b818103604083015261275281846123ec565b9050949350505050565b7f5265736964656e742077697468206164647265737320646f65736e742065786960008201527f7374730000000000000000000000000000000000000000000000000000000000602082015250565b60006127b86023836123db565b91506127c38261275c565b604082019050919050565b600060208201905081810360008301526127e7816127ab565b9050919050565b7f41706172746d656e742077697468206164647265737320646f65736e7420657860008201527f6973740000000000000000000000000000000000000000000000000000000000602082015250565b600061284a6023836123db565b9150612855826127ee565b604082019050919050565b600060208201905081810360008301526128798161283d565b9050919050565b60006040820190506128956000830185612472565b6128a26020830184612472565b9392505050565b7f41706172746d656e742077697468206164647265737320616c7265616479206560008201527f7869737400000000000000000000000000000000000000000000000000000000602082015250565b60006129056024836123db565b9150612910826128a9565b604082019050919050565b60006020820190508181036000830152612934816128f8565b9050919050565b7f4e487b7100000000000000000000000000000000000000000000000000000000600052602260045260246000fd5b6000600282049050600182168061298257607f821691505b6020821081036129955761299461293b565b5b50919050565b60008190508160005260206000209050919050565b60006020601f8301049050919050565b600082821b905092915050565b6000600883026129fd7fffffffffffffffffffffffffffffffffffffffffffffffffffffffffffffffff826129c0565b612a0786836129c0565b95508019841693508086168417925050509392505050565b6000819050919050565b6000612a44612a3f612a3a84612080565b612a1f565b612080565b9050919050565b6000819050919050565b612a5e83612a29565b612a72612a6a82612a4b565b8484546129cd565b825550505050565b600090565b612a87612a7a565b612a92818484612a55565b505050565b5b81811015612ab657612aab600082612a7f565b600181019050612a98565b5050565b601f821115612afb57612acc8161299b565b612ad5846129b0565b81016020851015612ae4578190505b612af8612af0856129b0565b830182612a97565b50505b505050565b600082821c905092915050565b6000612b1e60001984600802612b00565b1980831691505092915050565b6000612b378383612b0d565b9150826002028217905092915050565b612b5082612110565b67ffffffffffffffff811115612b6957612b68611ef9565b5b612b73825461296a565b612b7e828285612aba565b600060209050601f831160018114612bb15760008415612b9f578287015190505b612ba98582612b2b565b865550612c11565b601f198416612bbf8661299b565b60005b82811015612be757848901518255600182019150602085019450602081019050612bc2565b86831015612c045784890151612c00601f891682612b0d565b8355505b6001600288020188555050505b505050505050565b7f4e487b7100000000000000000000000000000000000000000000000000000000600052601160045260246000fd5b6000612c5382612080565b9150612c5e83612080565b9250827fffffffffffffffffffffffffffffffffffffffffffffffffffffffffffffffff03821115612c9357612c92612c19565b5b828201905092915050565b6000604082019050612cb36000830185612472565b8181036020830152612cc581846123ec565b90509392505050565b7f4e487b7100000000000000000000000000000000000000000000000000000000600052603260045260246000fd5b7f41706172746d656e7420646f65736e7420746f2062656c6f6e6720746f20726560008201527f736964656e740000000000000000000000000000000000000000000000000000602082015250565b6000612d596026836123db565b9150612d6482612cfd565b604082019050919050565b60006020820190508181036000830152612d8881612d4c565b9050919050565b6000608082019050612da46000830187612472565b612db16020830186612472565b612dbe6040830185612472565b8181036060830152612dd081846123ec565b905095945050505050565b6000612de682612080565b91507fffffffffffffffffffffffffffffffffffffffffffffffffffffffffffffffff8203612e1857612e17612c19565b5b600182019050919050565b7f4170706f696e7420776173206e6f742063726561746564000000000000000000600082015250565b6000612e596017836123db565b9150612e6482612e23565b602082019050919050565b60006020820190508181036000830152612e8881612e4c565b9050919050565b600060a082019050612ea460008301886122f1565b612eb16020830187612472565b612ebe6040830186612472565b612ecb6060830185612472565b8181036080830152612edd81846123ec565b90509695505050505050565b7f5265736964656e742077697468206164647265737320616c726561647920657860008201527f6973747300000000000000000000000000000000000000000000000000000000602082015250565b6000612f456024836123db565b9150612f5082612ee9565b604082019050919050565b60006020820190508181036000830152612f7481612f38565b905091905056fea26469706673582212208759ebb2454c191cff29ca3ed15d78e37033acdb633c1bf5b879939b8ec0660d64736f6c634300080f0033",
  "immutableReferences": {},
  "source": "pragma solidity ^0.8.13;\n\ncontract TrustAccessData {\n\n    address private contactOwner;\n    bool private operational = true;\n\n    uint public apartmentCount; \n    uint public residentCount; \n    uint public appointmentCount; \n\n    constructor() {\n        contactOwner = msg.sender;\n    }\n\n    mapping(address => Apartment) public apartments;\n    mapping(address => Resident) public residents;\n\n    // (_residentAddress => _apartmentAddress[])\n    mapping(address => address[]) public residentToApartmentsMap;\n\n    mapping(bytes32 => Appointment) public appointments;\n\n\n    event ApartmentRegistered(\n        address _apartmentAddress, \n        string _name \n    );\n    event ResidentRegistered( \n        address _residentAddress, \n        string _name \n    );\n    event AppointmentMade ( \n        bytes32 appointmentId, \n        address _residentAddress,\n        address _apartmentAddress,\n        address _visitorAddress, \n        string _time \n    );\n    event ResidentAssignedToApartment(\n        address _residentAddress,\n        address _apartmentAddress\n    );\n\n\n    modifier apartmentExists(address _apartmentAddress) {\n        require(apartments[_apartmentAddress].isValue, \"Apartment with address doesnt exist\");\n        _;\n    }\n\n    modifier apartmentDoesntExist(address _apartmentAddress) {\n        require(!apartments[_apartmentAddress].isValue, \"Apartment with address already exist\");\n        _;\n    }\n\n    modifier residentExists( address _residentAddress ) {\n        require(residents[_residentAddress].isValue, \"Resident with address doesnt exists\");\n        _;\n    }\n\n    modifier residentDoesntExist( address _residentAddress ) {\n        require(!residents[_residentAddress].isValue, \"Resident with address already exists\");\n        _;\n    }\n\n    modifier isSender( address _receivedSenderAddress ) {\n        require(_receivedSenderAddress == msg.sender, \"Received address must be equal to sender address\");\n        _;\n    }\n\n    modifier apartmentBelongsToResident(\n        address _residentAddress, \n        address _apartmentAddress\n    ) {\n        address[] memory apartmentsBelongingToResident = residentToApartmentsMap[_residentAddress];\n        bool apartmentFound = false; \n      \n\n\n        for(uint8 i=0;i < apartmentsBelongingToResident.length;){\n            if(apartmentsBelongingToResident[i] == _apartmentAddress){\n                apartmentFound = true;\n                break;\n            }\n\n            unchecked {\n                ++i;\n            }\n        }\n        require(apartmentFound, \"Apartment doesnt to belong to resident\");\n        _;\n    }\n     \n    function numberOfResidents()\n        external\n        view\n        returns (uint)\n    {\n        return residentCount;\n    }\n\n    function numberOfApartments()\n        external\n        view\n        returns (uint)\n    {\n        return apartmentCount;\n    }\n\n    function fetchApartment( address _apartmentAddress )\n        public\n        view\n        apartmentExists( _apartmentAddress )\n        returns(\n            uint id,\n            ApartmentStatus status,\n            string memory name\n        )\n    {\n        id = apartments[_apartmentAddress].id;\n        status = apartments[_apartmentAddress].status;\n        name = apartments[_apartmentAddress].name;\n\n        return(\n            id,\n            status,\n            name\n        );\n    }\n\n    function registerApartment( \n        address _apartmentAddress, \n        string memory _name \n    ) \n        public \n        apartmentDoesntExist(_apartmentAddress)\n        returns(Apartment memory apartment)\n    {\n\n        apartments[_apartmentAddress].id = apartmentCount;\n        apartments[_apartmentAddress].name = _name;\n        apartments[_apartmentAddress].status = ApartmentStatus.Active;\n        apartments[_apartmentAddress].isValue = true;\n\n        apartmentCount = apartmentCount + 1;\n\n        emit ApartmentRegistered(_apartmentAddress, _name);\n\n        return apartments[_apartmentAddress];\n    }\n\n    function fetchResident( address _residentAddress )\n        public\n        view\n        residentExists(_residentAddress)\n        returns(\n            uint id,\n            string memory name,\n            bool isActive\n        )\n    {\n        id = residents[_residentAddress].id;\n        name = residents[_residentAddress].name;\n        isActive = residents[_residentAddress].isActive;\n\n        return(\n            id,\n            name,\n            isActive\n        );\n    }\n\n    function registerResident( \n        address _residentAddress, \n        string memory _name \n    ) \n        public \n        residentDoesntExist(_residentAddress)\n        returns(Resident memory resident)\n    { \n\n        residents[_residentAddress].id = residentCount;\n        residents[_residentAddress].name = _name;\n        residents[_residentAddress].isActive = true;\n        residents[_residentAddress].isValue = true;\n\n        residentCount = residentCount + 1;\n\n        emit ResidentRegistered(_residentAddress, _name);\n\n        return residents[_residentAddress];\n    }\n\n    function fetchResidentApartments(address _residentAddress)\n        public\n        view\n        residentExists( _residentAddress )\n        returns(\n            address[] memory residentApartments\n        )\n    {\n        return residentToApartmentsMap[_residentAddress];\n    }\n\n    function assignResidentToApartment ( \n        address _residentAddress, \n        address _apartmentAddress \n    )\n        public\n        residentExists( _residentAddress )\n        apartmentExists( _apartmentAddress )\n        returns(address[] memory residentApartments)\n    {  \n\n        residentToApartmentsMap[_residentAddress].push(_apartmentAddress);\n\n        emit ResidentAssignedToApartment(\n            _residentAddress,\n            _apartmentAddress\n        );\n\n        return residentToApartmentsMap[_residentAddress];\n    }\n\n    function makeAppointment(  \n        address _apartmentAddress, \n        address _visitorAddress, \n        string memory _time\n    )\n        public\n        residentExists( msg.sender )\n        apartmentExists( _apartmentAddress )\n        apartmentBelongsToResident( msg.sender , _apartmentAddress )\n         \n        returns(bytes32 _appointmentId)\n    { \n\n        bytes32 appointmentId = keccak256(\n            abi.encode(\n                msg.sender,\n                _apartmentAddress,\n                _visitorAddress,\n                _time\n            )\n        );\n\n        Appointment storage appointment = appointments[appointmentId];\n\n        appointment.id = appointmentId;\n        appointment.residentAddress =  msg.sender;\n        appointment.apartmentAddress =  _apartmentAddress ;\n        appointment.visitorAddress =  _visitorAddress;\n        appointment.status =  AppointmentStatus.Active;\n        appointment.time = _time; \n        appointment.isValue = true;\n\n        appointmentCount++;\n\n        require(appointments[appointmentId].isValue, \"Appoint was not created\");\n\n        emit AppointmentMade( \n            appointmentId,\n            msg.sender,\n            _apartmentAddress,\n            _visitorAddress, \n            _time\n        );\n\n       \n\n        return appointmentId;\n    }\n\n    function verifyAppointment(\n        bytes32 _appointmentId,\n        address _visitorAddress\n    )\n        public\n        view\n        residentExists( msg.sender )\n        returns (bool valid)\n    { \n\n        // require(appointments[_appointmentId].isValue, \"Appointment does not exist\");\n        Appointment storage appointment = appointments[_appointmentId];\n\n        return  appointment.visitorAddress == _visitorAddress;\n    }\n\n    enum ApartmentStatus { \n        Inactive,\n        Active,\n        Suspended\n    }\n\n    enum AppointmentStatus { \n        Inactive,\n        Active,\n        CheckedIn,\n        CheckedOut\n    }\n\n    enum ApartmentResidentsStatus {\n        Inactive,\n        Active\n    }\n\n    struct Apartment {\n        uint id;\n        ApartmentStatus status;\n        address apartment;\n        string name; \n        bool isValue;\n    }\n\n    struct Resident {\n        uint id;\n        string name;\n        bool isActive;\n        bool isValue;\n    }\n\n    struct ApartmentResidents {\n        address apartmentAddress;\n        address residentAddress;\n        ApartmentResidentsStatus status; \n    }\n\n    struct Appointment {\n        bytes32 id;\n        address residentAddress;\n        address apartmentAddress;\n        address visitorAddress;\n        AppointmentStatus status;\n        string time; \n        bool isValue;\n    }\n}",
  "sourcePath": "/Users/gbenga/Desktop/Projects/blockchain/TrustAccess/contracts/TrustAccessData.sol",
  "compiler": {
    "name": "solc",
    "version": "0.8.15+commit.e14f2714.Emscripten.clang"
  },
  "schemaVersion": "3.4.8",
  "updatedAt": "2022-08-04T19:06:39.289Z",
  "devdoc": {
    "kind": "dev",
    "methods": {},
    "version": 1
  },
  "userdoc": {
    "kind": "user",
    "methods": {},
    "version": 1
  }
}